{
  "contractName": "CrowdFund",
  "abi": [
    {
      "inputs": [
        {
          "internalType": "address",
          "name": "_token",
          "type": "address"
        }
      ],
      "stateMutability": "nonpayable",
      "type": "constructor"
    },
    {
      "anonymous": false,
      "inputs": [
        {
          "indexed": false,
          "internalType": "uint256",
          "name": "id",
          "type": "uint256"
        }
      ],
      "name": "Cancel",
      "type": "event"
    },
    {
      "anonymous": false,
      "inputs": [
        {
          "indexed": false,
          "internalType": "uint256",
          "name": "id",
          "type": "uint256"
        }
      ],
      "name": "Claim",
      "type": "event"
    },
    {
      "anonymous": false,
      "inputs": [
        {
          "indexed": false,
          "internalType": "uint256",
          "name": "id",
          "type": "uint256"
        },
        {
          "indexed": true,
          "internalType": "address",
          "name": "creator",
          "type": "address"
        },
        {
          "indexed": false,
          "internalType": "uint256",
          "name": "goal",
          "type": "uint256"
        },
        {
          "indexed": false,
          "internalType": "uint32",
          "name": "startAt",
          "type": "uint32"
        },
        {
          "indexed": false,
          "internalType": "uint32",
          "name": "endAt",
          "type": "uint32"
        }
      ],
      "name": "Launch",
      "type": "event"
    },
    {
      "anonymous": false,
      "inputs": [
        {
          "indexed": true,
          "internalType": "uint256",
          "name": "id",
          "type": "uint256"
        },
        {
          "indexed": true,
          "internalType": "address",
          "name": "caller",
          "type": "address"
        },
        {
          "indexed": false,
          "internalType": "uint256",
          "name": "amount",
          "type": "uint256"
        }
      ],
      "name": "Pledge",
      "type": "event"
    },
    {
      "inputs": [
        {
          "internalType": "uint256",
          "name": "",
          "type": "uint256"
        }
      ],
      "name": "campaigns",
      "outputs": [
        {
          "internalType": "address",
          "name": "creator",
          "type": "address"
        },
        {
          "internalType": "uint256",
          "name": "goal",
          "type": "uint256"
        },
        {
          "internalType": "uint256",
          "name": "pledged",
          "type": "uint256"
        },
        {
          "internalType": "uint32",
          "name": "startAt",
          "type": "uint32"
        },
        {
          "internalType": "uint32",
          "name": "endAt",
          "type": "uint32"
        },
        {
          "internalType": "bool",
          "name": "claimed",
          "type": "bool"
        }
      ],
      "stateMutability": "view",
      "type": "function",
      "constant": true
    },
    {
      "inputs": [],
      "name": "count",
      "outputs": [
        {
          "internalType": "uint256",
          "name": "",
          "type": "uint256"
        }
      ],
      "stateMutability": "view",
      "type": "function",
      "constant": true
    },
    {
      "inputs": [
        {
          "internalType": "uint256",
          "name": "",
          "type": "uint256"
        },
        {
          "internalType": "address",
          "name": "",
          "type": "address"
        }
      ],
      "name": "pledgedAmount",
      "outputs": [
        {
          "internalType": "uint256",
          "name": "",
          "type": "uint256"
        }
      ],
      "stateMutability": "view",
      "type": "function",
      "constant": true
    },
    {
      "inputs": [],
      "name": "token",
      "outputs": [
        {
          "internalType": "contract IERC20",
          "name": "",
          "type": "address"
        }
      ],
      "stateMutability": "view",
      "type": "function",
      "constant": true
    },
    {
      "inputs": [
        {
          "internalType": "uint256",
          "name": "_goal",
          "type": "uint256"
        },
        {
          "internalType": "uint32",
          "name": "_startAt",
          "type": "uint32"
        },
        {
          "internalType": "uint32",
          "name": "_endAt",
          "type": "uint32"
        }
      ],
      "name": "launch",
      "outputs": [],
      "stateMutability": "nonpayable",
      "type": "function"
    },
    {
      "inputs": [
        {
          "internalType": "uint256",
          "name": "_id",
          "type": "uint256"
        }
      ],
      "name": "cancel",
      "outputs": [],
      "stateMutability": "nonpayable",
      "type": "function"
    },
    {
      "inputs": [
        {
          "internalType": "uint256",
          "name": "_id",
          "type": "uint256"
        },
        {
          "internalType": "uint256",
          "name": "_amount",
          "type": "uint256"
        }
      ],
      "name": "pledge",
      "outputs": [],
      "stateMutability": "nonpayable",
      "type": "function"
    },
    {
      "inputs": [
        {
          "internalType": "uint256",
          "name": "_id",
          "type": "uint256"
        }
      ],
      "name": "claim",
      "outputs": [],
      "stateMutability": "nonpayable",
      "type": "function"
    }
  ],
  "bytecode": "0x60a06040523480156200001157600080fd5b506040516200155e3803806200155e8339818101604052810190620000379190620000dc565b8073ffffffffffffffffffffffffffffffffffffffff1660808173ffffffffffffffffffffffffffffffffffffffff1681525050506200010e565b600080fd5b600073ffffffffffffffffffffffffffffffffffffffff82169050919050565b6000620000a48262000077565b9050919050565b620000b68162000097565b8114620000c257600080fd5b50565b600081519050620000d681620000ab565b92915050565b600060208284031215620000f557620000f462000072565b5b60006200010584828501620000c5565b91505092915050565b60805161142662000138600039600081816105dd0152818161097f0152610af601526114266000f3fe608060405234801561001057600080fd5b50600436106100885760003560e01c806340e58ee51161005b57806340e58ee514610118578063aa4fb63a14610134578063fc0c546a14610164578063fde327be1461018257610088565b806306661abd1461008d578063141961bc146100ab5780632c63f146146100e0578063379607f5146100fc575b600080fd5b61009561019e565b6040516100a29190610c02565b60405180910390f35b6100c560048036038101906100c09190610c4e565b6101a4565b6040516100d796959493929190610cf6565b60405180910390f35b6100fa60048036038101906100f59190610d83565b61022d565b005b61011660048036038101906101119190610c4e565b6104c3565b005b610132600480360381019061012d9190610c4e565b6106dd565b005b61014e60048036038101906101499190610e02565b610958565b60405161015b9190610c02565b60405180910390f35b61016c61097d565b6040516101799190610ea1565b60405180910390f35b61019c60048036038101906101979190610ebc565b6109a1565b005b60005481565b60016020528060005260406000206000915090508060000160009054906101000a900473ffffffffffffffffffffffffffffffffffffffff16908060010154908060020154908060030160009054906101000a900463ffffffff16908060030160049054906101000a900463ffffffff16908060030160089054906101000a900460ff16905086565b428263ffffffff161015610276576040517f08c379a000000000000000000000000000000000000000000000000000000000815260040161026d90610f59565b60405180910390fd5b8163ffffffff168163ffffffff1610156102c5576040517f08c379a00000000000000000000000000000000000000000000000000000000081526004016102bc90610fc5565b60405180910390fd5b6276a700426102d49190611014565b8163ffffffff16111561031c576040517f08c379a0000000000000000000000000000000000000000000000000000000008152600401610313906110b6565b60405180910390fd5b600160008082825461032e9190611014565b925050819055506040518060c001604052803373ffffffffffffffffffffffffffffffffffffffff168152602001848152602001600081526020018363ffffffff1681526020018263ffffffff16815260200160001515815250600160008054815260200190815260200160002060008201518160000160006101000a81548173ffffffffffffffffffffffffffffffffffffffff021916908373ffffffffffffffffffffffffffffffffffffffff160217905550602082015181600101556040820151816002015560608201518160030160006101000a81548163ffffffff021916908363ffffffff16021790555060808201518160030160046101000a81548163ffffffff021916908363ffffffff16021790555060a08201518160030160086101000a81548160ff0219169083151502179055509050503373ffffffffffffffffffffffffffffffffffffffff167f0601cd0d650b473037e838a2696d41e654433d065b3f56b28d1d3302e44a304f6000548585856040516104b694939291906110d6565b60405180910390a2505050565b60006001600083815260200190815260200160002090503373ffffffffffffffffffffffffffffffffffffffff168160000160009054906101000a900473ffffffffffffffffffffffffffffffffffffffff1673ffffffffffffffffffffffffffffffffffffffff161461056c576040517f08c379a000000000000000000000000000000000000000000000000000000000815260040161056390611167565b60405180910390fd5b8060030160089054906101000a900460ff16156105be576040517f08c379a00000000000000000000000000000000000000000000000000000000081526004016105b5906111d3565b60405180910390fd5b60018160030160086101000a81548160ff0219169083151502179055507f000000000000000000000000000000000000000000000000000000000000000073ffffffffffffffffffffffffffffffffffffffff1663a9059cbb8260000160009054906101000a900473ffffffffffffffffffffffffffffffffffffffff1683600201546040518363ffffffff1660e01b815260040161065e9291906111f3565b6020604051808303816000875af115801561067d573d6000803e3d6000fd5b505050506040513d601f19601f820116820180604052508101906106a19190611248565b507f7bb2b3c10797baccb6f8c4791f1edd6ca2f0d028ee0eda64b01a9a57e3a653f7826040516106d19190610c02565b60405180910390a15050565b6000600160008381526020019081526020016000206040518060c00160405290816000820160009054906101000a900473ffffffffffffffffffffffffffffffffffffffff1673ffffffffffffffffffffffffffffffffffffffff1673ffffffffffffffffffffffffffffffffffffffff16815260200160018201548152602001600282015481526020016003820160009054906101000a900463ffffffff1663ffffffff1663ffffffff1681526020016003820160049054906101000a900463ffffffff1663ffffffff1663ffffffff1681526020016003820160089054906101000a900460ff16151515158152505090503373ffffffffffffffffffffffffffffffffffffffff16816000015173ffffffffffffffffffffffffffffffffffffffff1614610842576040517f08c379a000000000000000000000000000000000000000000000000000000000815260040161083990611167565b60405180910390fd5b806060015163ffffffff16421061088e576040517f08c379a0000000000000000000000000000000000000000000000000000000008152600401610885906112c1565b60405180910390fd5b60016000838152602001908152602001600020600080820160006101000a81549073ffffffffffffffffffffffffffffffffffffffff0219169055600182016000905560028201600090556003820160006101000a81549063ffffffff02191690556003820160046101000a81549063ffffffff02191690556003820160086101000a81549060ff021916905550507f8bf30e7ff26833413be5f69e1d373744864d600b664204b4a2f9844a8eedb9ed8260405161094c9190610c02565b60405180910390a15050565b6002602052816000526040600020602052806000526040600020600091509150505481565b7f000000000000000000000000000000000000000000000000000000000000000081565b60006001600084815260200190815260200160002090508060030160009054906101000a900463ffffffff1663ffffffff16421015610a15576040517f08c379a0000000000000000000000000000000000000000000000000000000008152600401610a0c9061132d565b60405180910390fd5b8060030160049054906101000a900463ffffffff1663ffffffff16421115610a72576040517f08c379a0000000000000000000000000000000000000000000000000000000008152600401610a6990611399565b60405180910390fd5b81816002016000828254610a869190611014565b92505081905550816002600085815260200190815260200160002060003373ffffffffffffffffffffffffffffffffffffffff1673ffffffffffffffffffffffffffffffffffffffff1681526020019081526020016000206000828254610aed9190611014565b925050819055507f000000000000000000000000000000000000000000000000000000000000000073ffffffffffffffffffffffffffffffffffffffff166323b872dd3330856040518463ffffffff1660e01b8152600401610b51939291906113b9565b6020604051808303816000875af1158015610b70573d6000803e3d6000fd5b505050506040513d601f19601f82011682018060405250810190610b949190611248565b503373ffffffffffffffffffffffffffffffffffffffff16837f06bdb975df800a73232998e71ed585d536222f1dfeaa622d7f62a23ada686c8284604051610bdc9190610c02565b60405180910390a3505050565b6000819050919050565b610bfc81610be9565b82525050565b6000602082019050610c176000830184610bf3565b92915050565b600080fd5b610c2b81610be9565b8114610c3657600080fd5b50565b600081359050610c4881610c22565b92915050565b600060208284031215610c6457610c63610c1d565b5b6000610c7284828501610c39565b91505092915050565b600073ffffffffffffffffffffffffffffffffffffffff82169050919050565b6000610ca682610c7b565b9050919050565b610cb681610c9b565b82525050565b600063ffffffff82169050919050565b610cd581610cbc565b82525050565b60008115159050919050565b610cf081610cdb565b82525050565b600060c082019050610d0b6000830189610cad565b610d186020830188610bf3565b610d256040830187610bf3565b610d326060830186610ccc565b610d3f6080830185610ccc565b610d4c60a0830184610ce7565b979650505050505050565b610d6081610cbc565b8114610d6b57600080fd5b50565b600081359050610d7d81610d57565b92915050565b600080600060608486031215610d9c57610d9b610c1d565b5b6000610daa86828701610c39565b9350506020610dbb86828701610d6e565b9250506040610dcc86828701610d6e565b9150509250925092565b610ddf81610c9b565b8114610dea57600080fd5b50565b600081359050610dfc81610dd6565b92915050565b60008060408385031215610e1957610e18610c1d565b5b6000610e2785828601610c39565b9250506020610e3885828601610ded565b9150509250929050565b6000819050919050565b6000610e67610e62610e5d84610c7b565b610e42565b610c7b565b9050919050565b6000610e7982610e4c565b9050919050565b6000610e8b82610e6e565b9050919050565b610e9b81610e80565b82525050565b6000602082019050610eb66000830184610e92565b92915050565b60008060408385031215610ed357610ed2610c1d565b5b6000610ee185828601610c39565b9250506020610ef285828601610c39565b9150509250929050565b600082825260208201905092915050565b7f7374617274206174203c206e6f77000000000000000000000000000000000000600082015250565b6000610f43600e83610efc565b9150610f4e82610f0d565b602082019050919050565b60006020820190508181036000830152610f7281610f36565b9050919050565b7f656e64206174203c207374617274206174000000000000000000000000000000600082015250565b6000610faf601183610efc565b9150610fba82610f79565b602082019050919050565b60006020820190508181036000830152610fde81610fa2565b9050919050565b7f4e487b7100000000000000000000000000000000000000000000000000000000600052601160045260246000fd5b600061101f82610be9565b915061102a83610be9565b9250827fffffffffffffffffffffffffffffffffffffffffffffffffffffffffffffffff0382111561105f5761105e610fe5565b5b828201905092915050565b7f656e64206174203e206d6178206475726174696f6e0000000000000000000000600082015250565b60006110a0601583610efc565b91506110ab8261106a565b602082019050919050565b600060208201905081810360008301526110cf81611093565b9050919050565b60006080820190506110eb6000830187610bf3565b6110f86020830186610bf3565b6111056040830185610ccc565b6111126060830184610ccc565b95945050505050565b7f6e6f742063726561746f72000000000000000000000000000000000000000000600082015250565b6000611151600b83610efc565b915061115c8261111b565b602082019050919050565b6000602082019050818103600083015261118081611144565b9050919050565b7f636c61696d656400000000000000000000000000000000000000000000000000600082015250565b60006111bd600783610efc565b91506111c882611187565b602082019050919050565b600060208201905081810360008301526111ec816111b0565b9050919050565b60006040820190506112086000830185610cad565b6112156020830184610bf3565b9392505050565b61122581610cdb565b811461123057600080fd5b50565b6000815190506112428161121c565b92915050565b60006020828403121561125e5761125d610c1d565b5b600061126c84828501611233565b91505092915050565b7f7374617274656400000000000000000000000000000000000000000000000000600082015250565b60006112ab600783610efc565b91506112b682611275565b602082019050919050565b600060208201905081810360008301526112da8161129e565b9050919050565b7f6e6f742073746172746564000000000000000000000000000000000000000000600082015250565b6000611317600b83610efc565b9150611322826112e1565b602082019050919050565b600060208201905081810360008301526113468161130a565b9050919050565b7f656e646564000000000000000000000000000000000000000000000000000000600082015250565b6000611383600583610efc565b915061138e8261134d565b602082019050919050565b600060208201905081810360008301526113b281611376565b9050919050565b60006060820190506113ce6000830186610cad565b6113db6020830185610cad565b6113e86040830184610bf3565b94935050505056fea2646970667358221220879615ebd596084e1518173c20f1a8e043c511e51c02b222b90dc00d5d75013d64736f6c634300080d0033",
  "immutableReferences": {
    "66": [
      {
        "length": 32,
        "start": 1501
      },
      {
        "length": 32,
        "start": 2431
      },
      {
        "length": 32,
        "start": 2806
      }
    ]
  },
  "source": "//SPDX-License-Identifier: Unlicensed\n\npragma solidity ^0.8.13;\n\ninterface IERC20 {\n    function transfer(address, uint) external returns (bool);\n\n    function transferFrom(\n        address,\n        address,\n        uint\n    ) external returns (bool);\n}\n\ncontract CrowdFund {\n    event Launch(\n        uint id,\n        address indexed creator,\n        uint goal,\n        uint32 startAt,\n        uint32 endAt\n    );\n    event Cancel(uint id);\n    event Pledge(uint indexed id, address indexed caller, uint amount);\n    event Claim(uint id);\n\n    struct Campaign {\n        // Creator of campaign\n        address creator;\n        // Amount of tokens to raise\n        uint goal;\n        // Total amount pledged\n        uint pledged;\n        // Timestamp of start of campaign\n        uint32 startAt;\n        // Timestamp of end of campaign\n        uint32 endAt;\n        // True if goal was reached and creator has claimed the tokens.\n        bool claimed;\n    }\n\n    IERC20 public immutable token;\n    // Total count of campaigns created.\n    // It is also used to generate id for new campaigns.\n    uint public count;\n    // Mapping from id to Campaign\n    mapping(uint => Campaign) public campaigns;\n    // Mapping from campaign id => pledger => amount pledged\n    mapping(uint => mapping(address => uint)) public pledgedAmount;\n\n    constructor(address _token) {\n        token = IERC20(_token);\n    }\n\n\n    function launch(\n        uint _goal,\n        uint32 _startAt,\n        uint32 _endAt\n    ) external {\n        require(_startAt >= block.timestamp, \"start at < now\");\n        require(_endAt >= _startAt, \"end at < start at\");\n        require(_endAt <= block.timestamp + 90 days, \"end at > max duration\");\n\n        count += 1;\n        campaigns[count] = Campaign({\n            creator: msg.sender,\n            goal: _goal,\n            pledged: 0,\n            startAt: _startAt,\n            endAt: _endAt,\n            claimed: false\n        });\n\n        emit Launch(count, msg.sender, _goal, _startAt, _endAt);\n    }\n\n    function cancel(uint _id) external {\n        Campaign memory campaign = campaigns[_id];\n        require(campaign.creator == msg.sender, \"not creator\");\n        require(block.timestamp < campaign.startAt, \"started\");\n\n        delete campaigns[_id];\n        emit Cancel(_id);\n    }\n\n    function pledge(uint _id, uint _amount) external {\n        Campaign storage campaign = campaigns[_id];\n        require(block.timestamp >= campaign.startAt, \"not started\");\n        require(block.timestamp <= campaign.endAt, \"ended\");\n\n        campaign.pledged += _amount;\n        pledgedAmount[_id][msg.sender] += _amount;\n        token.transferFrom(msg.sender, address(this), _amount);\n\n        emit Pledge(_id, msg.sender, _amount);\n    }\n\n    function claim(uint _id) external {\n        Campaign storage campaign = campaigns[_id];\n        require(campaign.creator == msg.sender, \"not creator\");\n        require(!campaign.claimed, \"claimed\");\n\n        campaign.claimed = true;\n        token.transfer(campaign.creator, campaign.pledged);\n\n        emit Claim(_id);\n    }\n}",
  "sourcePath": "/home/hathat/Desktop/timed-crowdsale/contracts/Crowdsale.sol",
  "compiler": {
    "name": "solc",
    "version": "0.8.13+commit.abaa5c0e.Emscripten.clang"
  },
  "schemaVersion": "3.4.7",
  "updatedAt": "2022-06-14T19:26:06.585Z",
  "networkType": "ethereum",
  "devdoc": {
    "kind": "dev",
    "methods": {},
    "version": 1
  },
  "userdoc": {
    "kind": "user",
    "methods": {},
    "version": 1
  }
}